:10000000ABC00000C5C00000C3C00000C1C00000FC
:10001000BFC00000BDC00000BBC00000B9C00000F0
:10002000B7C00000B5C000007DC70000B1C000002F
:10003000AFC00000ADC00000ABC00000A9C0000010
:10004000A7C00000A5C00000A3C00000A1C0000020
:100050009FC00000EDC000009BC0000099C00000E0
:1000600097C0000095C0000093C0000091C0000040
:100070008FC000008DC000008BC0000089C0000050
:1000800087C0000085C0000083C0000081C0000060
:100090007FC000007DC000007BC0000079C0000070
:1000A00077C0000075C0000073C000002003460048
:1000B0006C0075007400740065007200200044003C
:1000C0006900730070006C0061007900000030036B
:1000D0005300770061006C006C006F0077007400C3
:1000E000610069006C00200045006C006500630041
:1000F000740072006F006E006900630073000000FE
:100100000403090409022200010100C032090400AD
:100110000001030000000921110100012220000755
:1001200005810308000512011001000000084123A9
:1001300036800100010200010600FF0901A101094A
:1001400002150025FF750895088102090315002591
:10015000FF750895089102C011241FBECFEFDAE0A9
:10016000DEBFCDBF11E0A0E0B1E0EAE0F4E102C003
:1001700005900D92A031B107D9F721E0A0E1B1E0DF
:1001800001C01D92AC32B207E1F7BDD00C94030A56
:1001900037CF292F332723303105C9F038F42130E8
:1001A000310559F02230310569F035C02132310571
:1001B00041F12232310551F12EC082E190E026E278
:1001C00031E032C082E290E024E031E02DC0992796
:1001D0008130910551F018F0029769F021C0E0E0FC
:1001E000F1E0849190E09F011FC0EEECF0E084917B
:1001F00090E09F0119C0ECEAF0E0849190E09F014B
:1002000013C089E090E026E131E00EC080E290E08A
:1002100028E331E009C080E090E020E030E004C055
:1002200080E090E020E030E0FA01318320830895FF
:100230001F920F920FB60F9211248F9380911B0182
:10024000813061F48FED85B980E185B980911D0120
:100250008295807F80931E0181BB0DC0811113C0E8
:1002600080E285B98FEE85B980911C018295807FEF
:1002700080931E0181BB80911B01811104C081E02C
:1002800080931B0102C010921B018F910F900FBE33
:100290000F901F90189584B7877F84BF0FB6F8948E
:1002A000A895809160008861809360001092600042
:1002B0000FBEE1E6F0E080E8808310828AB18F60B3
:1002C0008AB98BB1807F8BB984B1806384B980B3E4
:1002D000806F80BB85B18F7C85B981B38F7081BB06
:1002E00014BC85E085BD82E080936E008AEF87BDF7
:1002F00084B1837F84B985B18C6085B984E68093AD
:100300001A01F2C50895C7DF8BB1807F81608BB978
:100310008DE080931E0183E080931D0181E0809336
:100320001C01789480E091E0E8D10E94CC09FACFDA
:100330008BB1807F8A608BB910921E0110921D01D3
:1003400010921C0108958BB1807F81608BB9089554
:1003500080E091E0BED1E2EEF0E090819460908385
:10036000811102C099E001C096E08BB1807F892B9A
:100370008BB9089580E091E063C0089580910E01EB
:1003800090910F01009729F0019790930F018093AE
:100390000E0108950F931F9381E090E0F80191837F
:1003A000808380E01F910F910895F901808180384A
:1003B000C9F5418140931E018DEC489F912D112478
:1003C000969596959695692F660F562F550F550F52
:1003D000560FF42FF51BF0931D01989F812D1124CA
:1003E000869586958695880F582F550F550F850F42
:1003F000981B90931C01E0911001F0911101408332
:10040000F901828191EF980F9A3070F097EE980F72
:100410009A3060F09DED980F9F3050F0823350F08D
:100420009FE009C090E007C091E005C093E003C0E1
:100430009BE001C090E08BB1807F892B8BB9089540
:100440003F924F925F926F927F928F929F92AF9264
:10045000BF92CF92DF92EF92FF920F931F93CF93B1
:10046000DF9300D01F92CDB7DEB76C01EDB6FEB6BC
:100470008091E80083FF13C1F601808190E0209114
:100480002801309129012817390709F008C1809106
:100490002501833009F4A0C030F4813071F082303E
:1004A00009F4E2C0FCC08A3009F4C2C08B3009F400
:1004B000ABC0893009F0F3C051C080912401813A6A
:1004C00009F0EDC0ADB6BEB61A821982E4E2F1E0E1
:1004D000828113818B83F6018085482F50E08DB790
:1004E0009EB7841B950B0FB6F8949EBF0FBE8DBFB1
:1004F000EDB7FEB731964F0160E070E0CF017CD7D9
:100500004FEF410F8E010F5F1F4F9401BE016D5FD2
:100510007F4FC6013FDFF60186819781009721F06A
:10052000408550E0B4015FD71092E900E8EEF0E0BA
:100530008081877F80838B8181118093F100698125
:100540007A81C401F4D1E8EEF0E080818B7780837A
:100550000FB6F894BEBE0FBEADBEA1C080912401FF
:10056000813209F09CC06DB67EB6E4E2F1E006810E
:100570001781528043808DB79EB7801B910B0FB6B9
:10058000F8949EBF0FBE8DBFEDB7FEB731964F01F9
:100590000F2EF8EEAF2EB12CF02DF5018081877F64
:1005A0008083B801C40147D2F50180818E778083B2
:1005B00021E0511001C020E030E0021B130B280D98
:1005C000391D4FEF440D652DC601EFDE0FB6F894CF
:1005D0007EBE0FBE6DBE63C080912401813A09F0DA
:1005E0005EC0E8EEF0E08081877F8083808180FFBD
:1005F000FDCFF60181858093F100E8EEF0E0808187
:100600008E778083CCD34BC080912401813209F056
:1006100046C0E8EEF0E08081877F8083C0D3909170
:10062000260181E0911101C080E0F601818737C089
:1006300080912401813299F5E8EEF0E08081877F96
:100640008083ADD3809126019091270188270024D3
:10065000880F991F001C880F991F001C892F902D4F
:10066000F601958784871BC080912401813AB9F4F3
:10067000E8EEF0E08081877F8083808180FFFDCF7E
:10068000F6018485958596958795969587958093AF
:10069000F100E8EEF0E080818E77808380D30FB6A2
:1006A000F894FEBE0FBEEDBE0F900F900F90DF913D
:1006B000CF911F910F91FF90EF90DF90CF90BF905F
:1006C000AF909F908F907F906F905F904F903F90F2
:1006D0000895FC01399627E0DF011D922A95E9F77C
:1006E00021E0FC01218724EF31E03587248723E0D6
:1006F000248361E0019604C308955F926F927F9214
:100700008F929F92AF92BF92CF92DF92EF92FF9221
:100710000F931F93CF93DF9300D01F92CDB7DEB717
:100720007C01ADB6BEB680912301843009F08AC049
:100730008091E4009091E500F70122853385281728
:10074000390709F47FC081818F708093E90080911F
:10075000E80085FF77C08DB69EB6408550E08DB726
:100760009EB7841B950B0FB6F8949EBF0FBE8DBF2E
:10077000EDB7FEB731966F011B821A82198260E0D5
:1007800070E0CF0139D68E010F5F1F4F960140E018
:10079000BE016D5F7F4FC701FDDD582EF7018485D7
:1007A0009585892B41F081E026853785232B09F03B
:1007B00080E0782E01C0712CF701068117810115A8
:1007C000110589F049815A81B801C601FFD5662417
:1007D0006394892B09F4612CF701408550E0B60140
:1007E000C80101D601C0612C89819A81892BF1F061
:1007F000511004C0611002C070FE18C0F70184855A
:1008000095859787868781818F708093E9008B819A
:1008100081118093F10069817A8140E050E0C60146
:1008200029D0E8EEF0E080818E7780838091E4002B
:100830009091E500F701938782870FB6F8949EBEEA
:100840000FBE8DBE0FB6F894BEBE0FBEADBE0F90EC
:100850000F900F90DF91CF911F910F91FF90EF902C
:10086000DF90CF90BF90AF909F908F907F906F90D0
:100870005F9008958F929F92AF92BF92CF92DF9236
:10088000EF92FF920F931F93CF93DF938C01EB01B5
:100890005A01A9D281113EC0A114B10439F0F50169
:1008A00080819181C81BD90B080F191F209789F1EE
:1008B000E12CF12C0F2EF8EE8F2E912CF02D0F2E17
:1008C000F1EFCF2ED12CF02DF401808185FD14C0E5
:1008D00080818E77808360D5A114B10449F0F50141
:1008E00080819181E80EF91EF182E08285E012C0DC
:1008F0007AD2882351F00EC0F80181918F01F60160
:1009000080832197FFEFEF1AFF0A2097E9F680E036
:1009100001C080E0DF91CF911F910F91FF90EF9088
:10092000DF90CF90BF90AF909F908F900895CF921F
:10093000DF92FF920F931F93CF93DF9320912A01B1
:1009400030912B012617370758F06115710539F4DE
:10095000E8EEF0E020812E7720839B0101C09B010F
:10096000A82FB92F10E0E8EEF0E063EF70E042EF5F
:1009700050E00F2EF1EFCF2ED12CF02D01E0F12C15
:1009800030C080912301882309F442C0853009F4E6
:1009900041C0808183FD40C0808182FD32C0808162
:1009A00080FF1FC0EB011881EA01888190E0912B44
:1009B0002115310579F08830910560F41D91E6012B
:1009C00018832150310901962115310519F088301D
:1009D0009105A1F7102F089709F01F2D80818E77C0
:1009E00080832115310569F61111CBCF0AC08091A2
:1009F0002301882399F0853099F0808183FF03C01B
:100A000011C0E8EEF0E0808182FFF1CF80E00BC002
:100A100082E009C083E007C081E005C082E003C036
:100A200083E001C081E0DF91CF911F910F91FF9092
:100A3000DF90CF900895EF92FF921F93CF93DF93B3
:100A40006115710551F5E8EEF0E080818B778083C8
:100A500045C080912301882309F447C0853009F4FB
:100A600046C0808183FD45C0808182FFF2CF4DC0AA
:100A7000EA0188818D936150710941F0E901188183
:100A8000E701888190E0912B892B91F780818B770A
:100A900080836115710571F421C0A82FB92FE8EE8C
:100AA000F0E023EF30E00F2EF2EFEF2EF12CF02DDF
:100AB00041EF50E0809123018823E9F08530E9F08F
:100AC000808183FD1CC0808182FD1FC0C2CF8091C8
:100AD00023018823B1F0853019F415C0E8EEF0E069
:100AE000808180FFF4CF80E01AC082E018C083E0EC
:100AF00016C081E014C082E012C083E010C081E023
:100B00000EC082E00CC083E00AC0E9011881E70151
:100B1000888190E0912B892B09F0AACFB7CFDF9184
:100B2000CF911F91FF90EF900895CF92DF92FF92A7
:100B30000F931F93CF93DF9320912A0130912B01C4
:100B40002617370758F06115710539F4E8EEF0E023
:100B500020812E7720839B0101C09B01E82FF92F74
:100B600010E0A8EEB0E063EF70E042EF50E00F2E2F
:100B7000F1EFCF2ED12CF02D01E0F12C31C080917E
:100B80002301882309F443C0853009F442C08C91C5
:100B900083FD41C08C9182FD33C08C9180FF20C0C9
:100BA000EB011881EA01888190E0912B2115310534
:100BB00081F08830910568F41491E601188331962C
:100BC0002150310901962115310519F08830910520
:100BD00099F7102F089709F01F2D8C918E778C9321
:100BE0002115310561F61111CACF0AC08091230188
:100BF000882399F0853099F0808183FF03C011C06C
:100C0000E8EEF0E0808182FFF1CF80E00BC082E06F
:100C100009C083E007C081E005C082E003C083E033
:100C200001C081E0DF91CF911F910F91FF90DF9084
:100C3000CF9008958F929F92BF92CF92DF92EF92C2
:100C4000FF920F931F93CF93DF93873070F126C0ED
:100C5000292F2F70E7012883891731F0E801788167
:100C60002081E401588103C0242F762F5B2D21FFC2
:100C700012C03C913E7F3C9330813D7F30833C915C
:100C800031603C93E80178832083E4015883E601D6
:100C90002881222344F49F5F9730D1F68F70809390
:100CA000E90081E021C080E01FC0982F9F709093E1
:100CB000E900982F242F762F50E0ABEEB0E0EDEE58
:100CC000F0E00CEE10E00F2EF0EF8F2E912CF02DB7
:100CD0000F2EFEEECF2ED12CF02D0F2EF9EEEF2E93
:100CE000F12CF02DB12CC3CFDF91CF911F910F913B
:100CF000FF90EF90DF90CF90BF909F908F900895DE
:100D0000EF92FF920F931F93CF93DF936623E9F146
:100D1000062FC82FD92F10E00F2EF6E0FF2EF02D52
:100D20006894EE24E1F85881552349F19C81E981CA
:100D3000FA816B81852F8F70873048F5923010F4DF
:100D40004E2D01C04F2DE930F10550F028E030E084
:100D500090E09F5F220F331F2E173F07D0F301C093
:100D600090E09295907F492B90E4699FB001112407
:100D7000551F5527551F652B5DDF882349F01F5FE1
:100D800025960113D0CF81E003C081E001C080E04F
:100D9000DF91CF911F910F91FF90EF900895809177
:100DA0002401882344F0E8EEF0E014C08091230190
:100DB000811103C00895E8EEF0E0808182FFF6CF54
:100DC000E8EEF0E080818B778083089580912301A5
:100DD000882341F0808180FFF9CFE8EEF0E0808148
:100DE0008E77808308950F931F93CF93DF93209185
:100DF000E4003091E50065E6ACEEB0E0E8EEF0E04E
:100E00000BEE10E044EE50E001C09C019C91892F54
:100E1000817090FD1DC020C080912301882381F046
:100E2000853081F0E801888185FD0EC0EA01888166
:100E300099812817390751F3615039F784E00FC0C1
:100E400082E00DC083E00BC081E009C080E007C0F4
:100E5000808180FFE1CFFACF908192FFDDCFDF91DB
:100E6000CF911F910F9108950F931F93CF93DF930D
:100E70004CD053D0C8EDD0E088818F7788838881AB
:100E80008068888388818F7D888319BC10922301B4
:100E900010921F01109221011092200100EE10E02B
:100EA000F80180818B7F808388818160888342E024
:100EB00060E080E0BFDEE1EEF0E080818E7F808345
:100EC000E2EEF0E0808181608083808188608083B1
:100ED000F80180818E7F8083888180618883DF91A3
:100EE000CF911F910F910895E8EDF0E080818F7E02
:100EF0008083E7EDF0E080818160808384E082BFC1
:100F000081E080932201B0CF0895E8EDF0E0808188
:100F10008E7F80831092E20008951092DA00109282
:100F2000E10008951F920F920FB60F9211242F9394
:100F30003F934F935F936F937F938F939F93AF9361
:100F4000BF93EF93FF938091E10082FF0AC08091ED
:100F5000E20082FF06C0E1EEF0E080818B7F8083BB
:100F60000DDA8091DA0080FF1DC08091D80080FFEB
:100F700019C0EAEDF0E080818E7F80838091D900F6
:100F800080FF0CC080E189BD82E189BD09B400FE0B
:100F9000FDCF81E080932301CBD904C019BC10920E
:100FA0002301D1D98091E10080FF16C08091E20039
:100FB00080FF12C0E2EEF0E080818E7F808380812E
:100FC00080618083E8EDF0E080818062808319BCDD
:100FD00085E080932301DFD18091E10084FF2FC061
:100FE0008091E20084FF2BC080E189BD82E189BD50
:100FF00009B400FEFDCFE8EDF0E080818F7D8083B5
:10100000E1EEF0E080818F7E8083E2EEF0E080818F
:101010008F7E808380818160808380911F018823FF
:1010200021F084E08093230109C08091E3008823AC
:1010300014F081E001C083E080932301ACD1809162
:10104000E10083FF1EC08091E20083FF1AC0E1EE41
:10105000F0E08081877F808382E08093230110927B
:101060001F0180818E7F8083E2EEF0E080818E7FA1
:10107000808380818061808342E060E080E0DADD0F
:101080008AD1FF91EF91BF91AF919F918F917F9105
:101090006F915F914F913F912F910F900FBE0F90E5
:1010A0001F9018950F931F93CF93DF93CDB7DEB7A3
:1010B000AA970FB6F894DEBF0FBECDBFE4E2F1E011
:1010C0002CE231E0A1EFB0E08C9181932E173F0725
:1010D000D9F750D98091E80083FF38C1E4E2F1E00C
:1010E00090818181853009F47FC030F48130C9F16D
:1010F00068F08330B1F12AC1883009F4F2C0893038
:1011000009F4FFC0863009F021C191C0903821F068
:10111000923809F01BC108C08091200190912101F3
:10112000992389F082600FC0809128018F708730E9
:1011300008F00CC1E9EEF0E080838091EB0085FBC4
:10114000882780F91082E8EEF0E09081977F908305
:10115000A1EFB0E08C931C9280818E7780831FDE9C
:10116000F5C0992309F401C1923009F0EFC002C122
:1011700091E0833009F090E0909321012CC08091A0
:1011800028018F709FEF980F963008F0DFC0809392
:10119000E9009091EB0090FF1EC0909125019330E3
:1011A00031F4EBEEF0E080818062808314C0EBEEDE
:1011B000F0E090819061908321E030E0A90102C0CD
:1011C000440F551F8A95E2F7AAEEB0E04C931C92AB
:1011D0008081886080831092E900E8EEF0E08081F1
:1011E000877F8083DCDDB2C09111B0C010912601F1
:1011F0001F77E3EEF0E080818078812B8083E8EE3A
:10120000F0E08081877F8083CADDE8EEF0E08081B6
:1012100080FFFDCFE3EEF0E08081806880831111D4
:1012200002C082E001C083E0809323018FC0905808
:10123000923008F08BC080912601909127018C3D5F
:1012400053E0950799F583E08A838AE289835FB743
:10125000F894DE01139620E03EE041E2E32FF0E057
:1012600040935700849120FF03C082958F703F5FA9
:101270008F708A3018F090E0C79602C090E0C09658
:101280008D939D932F5F243149F75FBF08EE10E0E7
:10129000F8018081877F80836AE270E0CE01019649
:1012A00046DBF80180818B77808350C060912801F4
:1012B00070912901AE014F5F5F4F0E94C900BC01D0
:1012C000892B09F443C008EE10E0F8019081977F64
:1012D000908389819A8129DCF80180818B778083D2
:1012E00035C0903899F5E8EEF0E08081877F808303
:1012F00080911F018093F10080818E7780834FDD84
:1013000025C0911123C08091260190912701992732
:101310000297E4F4E8EEF0E08081877F808380919B
:10132000260180931F013BDD80911F01882321F05E
:1013300084E08093230109C08091E300882314F0A6
:1013400081E001C084E08093230102D88091E8000D
:1013500083FF16C0E8EEF0E08081877F8083EBEEAC
:10136000F0E08081806280830BC0909126019130F3
:1013700069F7FECE80912601882309F400CF2BCF98
:10138000AA960FB6F894DEBF0FBECDBFDF91CF9106
:101390001F910F9108950895CF9380912301882381
:1013A00099F0C091E900CF708091EC00982F917076
:1013B00080FD90E8C92B1092E9008091E80083FD40
:1013C00071DECF70C093E900CF910895FB01DC017D
:1013D00004C08D910190801921F441505040C8F70C
:1013E000881B990B0895FB01DC0102C001900D924E
:1013F00041505040D8F70895DC0101C06D93415031
:0A1400005040E0F70895F894FFCF84
:10140A00008108000001120108000000000000002D
:00000001FF
